{
  "_format": "hh-sol-artifact-1",
  "contractName": "Upload",
  "sourceName": "contracts/Upload.sol",
  "abi": [
    {
      "inputs": [
        {
          "internalType": "address",
          "name": "_user",
          "type": "address"
        },
        {
          "internalType": "string",
          "name": "url",
          "type": "string"
        }
      ],
      "name": "add",
      "outputs": [],
      "stateMutability": "nonpayable",
      "type": "function"
    },
    {
      "inputs": [
        {
          "internalType": "address",
          "name": "user",
          "type": "address"
        }
      ],
      "name": "allow",
      "outputs": [],
      "stateMutability": "nonpayable",
      "type": "function"
    },
    {
      "inputs": [
        {
          "internalType": "string",
          "name": "_name",
          "type": "string"
        },
        {
          "internalType": "string",
          "name": "_description",
          "type": "string"
        },
        {
          "internalType": "int256",
          "name": "_vacancy",
          "type": "int256"
        },
        {
          "internalType": "string",
          "name": "_eligibility",
          "type": "string"
        },
        {
          "internalType": "uint256",
          "name": "_registrationDeadline",
          "type": "uint256"
        },
        {
          "internalType": "uint256",
          "name": "_totalMarks",
          "type": "uint256"
        },
        {
          "internalType": "uint256",
          "name": "_examDuration",
          "type": "uint256"
        },
        {
          "internalType": "string",
          "name": "_examDate",
          "type": "string"
        },
        {
          "internalType": "string",
          "name": "_salary",
          "type": "string"
        }
      ],
      "name": "createPaper",
      "outputs": [],
      "stateMutability": "nonpayable",
      "type": "function"
    },
    {
      "inputs": [
        {
          "internalType": "address",
          "name": "user",
          "type": "address"
        }
      ],
      "name": "disallow",
      "outputs": [],
      "stateMutability": "nonpayable",
      "type": "function"
    },
    {
      "inputs": [
        {
          "internalType": "address",
          "name": "_user",
          "type": "address"
        }
      ],
      "name": "display",
      "outputs": [
        {
          "internalType": "string[]",
          "name": "",
          "type": "string[]"
        }
      ],
      "stateMutability": "view",
      "type": "function"
    },
    {
      "inputs": [
        {
          "internalType": "uint256",
          "name": "_paperId",
          "type": "uint256"
        }
      ],
      "name": "getPaperDetails",
      "outputs": [
        {
          "internalType": "string",
          "name": "",
          "type": "string"
        },
        {
          "internalType": "string",
          "name": "",
          "type": "string"
        },
        {
          "internalType": "int256",
          "name": "",
          "type": "int256"
        },
        {
          "internalType": "string",
          "name": "",
          "type": "string"
        },
        {
          "internalType": "uint256",
          "name": "",
          "type": "uint256"
        },
        {
          "internalType": "uint256",
          "name": "",
          "type": "uint256"
        },
        {
          "internalType": "uint256",
          "name": "",
          "type": "uint256"
        },
        {
          "internalType": "string",
          "name": "",
          "type": "string"
        },
        {
          "internalType": "string",
          "name": "",
          "type": "string"
        },
        {
          "internalType": "address",
          "name": "",
          "type": "address"
        }
      ],
      "stateMutability": "view",
      "type": "function"
    },
    {
      "inputs": [],
      "name": "paperCount",
      "outputs": [
        {
          "internalType": "uint256",
          "name": "",
          "type": "uint256"
        }
      ],
      "stateMutability": "view",
      "type": "function"
    },
    {
      "inputs": [
        {
          "internalType": "uint256",
          "name": "",
          "type": "uint256"
        }
      ],
      "name": "papers",
      "outputs": [
        {
          "internalType": "string",
          "name": "name",
          "type": "string"
        },
        {
          "internalType": "string",
          "name": "description",
          "type": "string"
        },
        {
          "internalType": "int256",
          "name": "vacancy",
          "type": "int256"
        },
        {
          "internalType": "string",
          "name": "eligibility",
          "type": "string"
        },
        {
          "internalType": "uint256",
          "name": "registrationDeadline",
          "type": "uint256"
        },
        {
          "internalType": "uint256",
          "name": "totalMarks",
          "type": "uint256"
        },
        {
          "internalType": "uint256",
          "name": "examDuration",
          "type": "uint256"
        },
        {
          "internalType": "string",
          "name": "examDate",
          "type": "string"
        },
        {
          "internalType": "string",
          "name": "salary",
          "type": "string"
        },
        {
          "internalType": "address",
          "name": "creator",
          "type": "address"
        }
      ],
      "stateMutability": "view",
      "type": "function"
    },
    {
      "inputs": [],
      "name": "shareAccess",
      "outputs": [
        {
          "components": [
            {
              "internalType": "address",
              "name": "user",
              "type": "address"
            },
            {
              "internalType": "bool",
              "name": "access",
              "type": "bool"
            }
          ],
          "internalType": "struct Upload.Access[]",
          "name": "",
          "type": "tuple[]"
        }
      ],
      "stateMutability": "view",
      "type": "function"
    }
  ],
  "bytecode": "0x6080604052600060055534801561001557600080fd5b50611eeb806100256000396000f3fe608060405234801561001057600080fd5b50600436106100935760003560e01c8063a9ed9cb811610066578063a9ed9cb814610144578063b9b402b214610160578063bc8bef811461017c578063eb39113f1461019a578063ff9913e8146101ca57610093565b806336d6da55146100985780635e775a27146100b45780638bf7526e146100ed578063a56c2cb914610126575b600080fd5b6100b260048036038101906100ad91906116e2565b6101e6565b005b6100ce60048036038101906100c99190611774565b610262565b6040516100e49a99989796959493929190611860565b60405180910390f35b61010760048036038101906101029190611774565b61057e565b60405161011d9a99989796959493929190611860565b60405180910390f35b61012e61095f565b60405161013b919061191f565b60405180910390f35b61015e6004803603810190610159919061193a565b610965565b005b61017a60048036038101906101759190611993565b610b88565b005b610184610d21565b6040516101919190611bf1565b60405180910390f35b6101b460048036038101906101af919061193a565b610e2a565b6040516101c19190611d1f565b60405180910390f35b6101e460048036038101906101df919061193a565b611040565b005b6000808373ffffffffffffffffffffffffffffffffffffffff1673ffffffffffffffffffffffffffffffffffffffff1681526020019081526020016000208190806001815401808255809150506001900390600052602060002001600090919091909150908051906020019061025d929190611487565b505050565b600460205280600052604060002060009150905080600001805461028590611d70565b80601f01602080910402602001604051908101604052809291908181526020018280546102b190611d70565b80156102fe5780601f106102d3576101008083540402835291602001916102fe565b820191906000526020600020905b8154815290600101906020018083116102e157829003601f168201915b50505050509080600101805461031390611d70565b80601f016020809104026020016040519081016040528092919081815260200182805461033f90611d70565b801561038c5780601f106103615761010080835404028352916020019161038c565b820191906000526020600020905b81548152906001019060200180831161036f57829003601f168201915b5050505050908060020154908060030180546103a790611d70565b80601f01602080910402602001604051908101604052809291908181526020018280546103d390611d70565b80156104205780601f106103f557610100808354040283529160200191610420565b820191906000526020600020905b81548152906001019060200180831161040357829003601f168201915b50505050509080600401549080600501549080600601549080600701805461044790611d70565b80601f016020809104026020016040519081016040528092919081815260200182805461047390611d70565b80156104c05780601f10610495576101008083540402835291602001916104c0565b820191906000526020600020905b8154815290600101906020018083116104a357829003601f168201915b5050505050908060080180546104d590611d70565b80601f016020809104026020016040519081016040528092919081815260200182805461050190611d70565b801561054e5780601f106105235761010080835404028352916020019161054e565b820191906000526020600020905b81548152906001019060200180831161053157829003601f168201915b5050505050908060090160009054906101000a900473ffffffffffffffffffffffffffffffffffffffff1690508a565b606080600060606000806000606080600080600460008d8152602001908152602001600020604051806101400160405290816000820180546105bf90611d70565b80601f01602080910402602001604051908101604052809291908181526020018280546105eb90611d70565b80156106385780601f1061060d57610100808354040283529160200191610638565b820191906000526020600020905b81548152906001019060200180831161061b57829003601f168201915b5050505050815260200160018201805461065190611d70565b80601f016020809104026020016040519081016040528092919081815260200182805461067d90611d70565b80156106ca5780601f1061069f576101008083540402835291602001916106ca565b820191906000526020600020905b8154815290600101906020018083116106ad57829003601f168201915b50505050508152602001600282015481526020016003820180546106ed90611d70565b80601f016020809104026020016040519081016040528092919081815260200182805461071990611d70565b80156107665780601f1061073b57610100808354040283529160200191610766565b820191906000526020600020905b81548152906001019060200180831161074957829003601f168201915b5050505050815260200160048201548152602001600582015481526020016006820154815260200160078201805461079d90611d70565b80601f01602080910402602001604051908101604052809291908181526020018280546107c990611d70565b80156108165780601f106107eb57610100808354040283529160200191610816565b820191906000526020600020905b8154815290600101906020018083116107f957829003601f168201915b5050505050815260200160088201805461082f90611d70565b80601f016020809104026020016040519081016040528092919081815260200182805461085b90611d70565b80156108a85780601f1061087d576101008083540402835291602001916108a8565b820191906000526020600020905b81548152906001019060200180831161088b57829003601f168201915b505050505081526020016009820160009054906101000a900473ffffffffffffffffffffffffffffffffffffffff1673ffffffffffffffffffffffffffffffffffffffff1673ffffffffffffffffffffffffffffffffffffffff16815250509050806000015181602001518260400151836060015184608001518560a001518660c001518760e001518861010001518961012001519a509a509a509a509a509a509a509a509a509a50509193959799509193959799565b60055481565b6000600160003373ffffffffffffffffffffffffffffffffffffffff1673ffffffffffffffffffffffffffffffffffffffff16815260200190815260200160002060008373ffffffffffffffffffffffffffffffffffffffff1673ffffffffffffffffffffffffffffffffffffffff16815260200190815260200160002060006101000a81548160ff02191690831515021790555060005b600260003373ffffffffffffffffffffffffffffffffffffffff1673ffffffffffffffffffffffffffffffffffffffff16815260200190815260200160002080549050811015610b84578173ffffffffffffffffffffffffffffffffffffffff16600260003373ffffffffffffffffffffffffffffffffffffffff1673ffffffffffffffffffffffffffffffffffffffff1681526020019081526020016000208281548110610aaf57610aae611da2565b5b9060005260206000200160000160009054906101000a900473ffffffffffffffffffffffffffffffffffffffff1673ffffffffffffffffffffffffffffffffffffffff161415610b71576000600260003373ffffffffffffffffffffffffffffffffffffffff1673ffffffffffffffffffffffffffffffffffffffff1681526020019081526020016000208281548110610b4c57610b4b611da2565b5b9060005260206000200160000160146101000a81548160ff0219169083151502179055505b8080610b7c90611e00565b9150506109fd565b5050565b60056000815480929190610b9b90611e00565b91905055506040518061014001604052808a81526020018981526020018881526020018781526020018681526020018581526020018481526020018381526020018281526020013373ffffffffffffffffffffffffffffffffffffffff168152506004600060055481526020019081526020016000206000820151816000019080519060200190610c2d929190611487565b506020820151816001019080519060200190610c4a929190611487565b50604082015181600201556060820151816003019080519060200190610c71929190611487565b506080820151816004015560a0820151816005015560c0820151816006015560e0820151816007019080519060200190610cac929190611487565b50610100820151816008019080519060200190610cca929190611487565b506101208201518160090160006101000a81548173ffffffffffffffffffffffffffffffffffffffff021916908373ffffffffffffffffffffffffffffffffffffffff160217905550905050505050505050505050565b6060600260003373ffffffffffffffffffffffffffffffffffffffff1673ffffffffffffffffffffffffffffffffffffffff168152602001908152602001600020805480602002602001604051908101604052809291908181526020016000905b82821015610e21578382906000526020600020016040518060400160405290816000820160009054906101000a900473ffffffffffffffffffffffffffffffffffffffff1673ffffffffffffffffffffffffffffffffffffffff1673ffffffffffffffffffffffffffffffffffffffff1681526020016000820160149054906101000a900460ff16151515158152505081526020019060010190610d82565b50505050905090565b60603373ffffffffffffffffffffffffffffffffffffffff168273ffffffffffffffffffffffffffffffffffffffff161480610eec5750600160008373ffffffffffffffffffffffffffffffffffffffff1673ffffffffffffffffffffffffffffffffffffffff16815260200190815260200160002060003373ffffffffffffffffffffffffffffffffffffffff1673ffffffffffffffffffffffffffffffffffffffff16815260200190815260200160002060009054906101000a900460ff165b610f2b576040517f08c379a0000000000000000000000000000000000000000000000000000000008152600401610f2290611e95565b60405180910390fd5b6000808373ffffffffffffffffffffffffffffffffffffffff1673ffffffffffffffffffffffffffffffffffffffff168152602001908152602001600020805480602002602001604051908101604052809291908181526020016000905b82821015611035578382906000526020600020018054610fa890611d70565b80601f0160208091040260200160405190810160405280929190818152602001828054610fd490611d70565b80156110215780601f10610ff657610100808354040283529160200191611021565b820191906000526020600020905b81548152906001019060200180831161100457829003601f168201915b505050505081526020019060010190610f89565b505050509050919050565b60018060003373ffffffffffffffffffffffffffffffffffffffff1673ffffffffffffffffffffffffffffffffffffffff16815260200190815260200160002060008373ffffffffffffffffffffffffffffffffffffffff1673ffffffffffffffffffffffffffffffffffffffff16815260200190815260200160002060006101000a81548160ff021916908315150217905550600360003373ffffffffffffffffffffffffffffffffffffffff1673ffffffffffffffffffffffffffffffffffffffff16815260200190815260200160002060008273ffffffffffffffffffffffffffffffffffffffff1673ffffffffffffffffffffffffffffffffffffffff16815260200190815260200160002060009054906101000a900460ff16156112f35760005b600260003373ffffffffffffffffffffffffffffffffffffffff1673ffffffffffffffffffffffffffffffffffffffff168152602001908152602001600020805490508110156112ed578173ffffffffffffffffffffffffffffffffffffffff16600260003373ffffffffffffffffffffffffffffffffffffffff1673ffffffffffffffffffffffffffffffffffffffff168152602001908152602001600020828154811061121857611217611da2565b5b9060005260206000200160000160009054906101000a900473ffffffffffffffffffffffffffffffffffffffff1673ffffffffffffffffffffffffffffffffffffffff1614156112da576001600260003373ffffffffffffffffffffffffffffffffffffffff1673ffffffffffffffffffffffffffffffffffffffff16815260200190815260200160002082815481106112b5576112b4611da2565b5b9060005260206000200160000160146101000a81548160ff0219169083151502179055505b80806112e590611e00565b915050611166565b50611484565b600260003373ffffffffffffffffffffffffffffffffffffffff1673ffffffffffffffffffffffffffffffffffffffff16815260200190815260200160002060405180604001604052808373ffffffffffffffffffffffffffffffffffffffff168152602001600115158152509080600181540180825580915050600190039060005260206000200160009091909190915060008201518160000160006101000a81548173ffffffffffffffffffffffffffffffffffffffff021916908373ffffffffffffffffffffffffffffffffffffffff16021790555060208201518160000160146101000a81548160ff02191690831515021790555050506001600360003373ffffffffffffffffffffffffffffffffffffffff1673ffffffffffffffffffffffffffffffffffffffff16815260200190815260200160002060008373ffffffffffffffffffffffffffffffffffffffff1673ffffffffffffffffffffffffffffffffffffffff16815260200190815260200160002060006101000a81548160ff0219169083151502179055505b50565b82805461149390611d70565b90600052602060002090601f0160209004810192826114b557600085556114fc565b82601f106114ce57805160ff19168380011785556114fc565b828001600101855582156114fc579182015b828111156114fb5782518255916020019190600101906114e0565b5b509050611509919061150d565b5090565b5b8082111561152657600081600090555060010161150e565b5090565b6000604051905090565b600080fd5b600080fd5b600073ffffffffffffffffffffffffffffffffffffffff82169050919050565b60006115698261153e565b9050919050565b6115798161155e565b811461158457600080fd5b50565b60008135905061159681611570565b92915050565b600080fd5b600080fd5b6000601f19601f8301169050919050565b7f4e487b7100000000000000000000000000000000000000000000000000000000600052604160045260246000fd5b6115ef826115a6565b810181811067ffffffffffffffff8211171561160e5761160d6115b7565b5b80604052505050565b600061162161152a565b905061162d82826115e6565b919050565b600067ffffffffffffffff82111561164d5761164c6115b7565b5b611656826115a6565b9050602081019050919050565b82818337600083830152505050565b600061168561168084611632565b611617565b9050828152602081018484840111156116a1576116a06115a1565b5b6116ac848285611663565b509392505050565b600082601f8301126116c9576116c861159c565b5b81356116d9848260208601611672565b91505092915050565b600080604083850312156116f9576116f8611534565b5b600061170785828601611587565b925050602083013567ffffffffffffffff81111561172857611727611539565b5b611734858286016116b4565b9150509250929050565b6000819050919050565b6117518161173e565b811461175c57600080fd5b50565b60008135905061176e81611748565b92915050565b60006020828403121561178a57611789611534565b5b60006117988482850161175f565b91505092915050565b600081519050919050565b600082825260208201905092915050565b60005b838110156117db5780820151818401526020810190506117c0565b838111156117ea576000848401525b50505050565b60006117fb826117a1565b61180581856117ac565b93506118158185602086016117bd565b61181e816115a6565b840191505092915050565b6000819050919050565b61183c81611829565b82525050565b61184b8161173e565b82525050565b61185a8161155e565b82525050565b600061014082019050818103600083015261187b818d6117f0565b9050818103602083015261188f818c6117f0565b905061189e604083018b611833565b81810360608301526118b0818a6117f0565b90506118bf6080830189611842565b6118cc60a0830188611842565b6118d960c0830187611842565b81810360e08301526118eb81866117f0565b905081810361010083015261190081856117f0565b9050611910610120830184611851565b9b9a5050505050505050505050565b60006020820190506119346000830184611842565b92915050565b6000602082840312156119505761194f611534565b5b600061195e84828501611587565b91505092915050565b61197081611829565b811461197b57600080fd5b50565b60008135905061198d81611967565b92915050565b60008060008060008060008060006101208a8c0312156119b6576119b5611534565b5b60008a013567ffffffffffffffff8111156119d4576119d3611539565b5b6119e08c828d016116b4565b99505060208a013567ffffffffffffffff811115611a0157611a00611539565b5b611a0d8c828d016116b4565b9850506040611a1e8c828d0161197e565b97505060608a013567ffffffffffffffff811115611a3f57611a3e611539565b5b611a4b8c828d016116b4565b9650506080611a5c8c828d0161175f565b95505060a0611a6d8c828d0161175f565b94505060c0611a7e8c828d0161175f565b93505060e08a013567ffffffffffffffff811115611a9f57611a9e611539565b5b611aab8c828d016116b4565b9250506101008a013567ffffffffffffffff811115611acd57611acc611539565b5b611ad98c828d016116b4565b9150509295985092959850929598565b600081519050919050565b600082825260208201905092915050565b6000819050602082019050919050565b611b1e8161155e565b82525050565b60008115159050919050565b611b3981611b24565b82525050565b604082016000820151611b556000850182611b15565b506020820151611b686020850182611b30565b50505050565b6000611b7a8383611b3f565b60408301905092915050565b6000602082019050919050565b6000611b9e82611ae9565b611ba88185611af4565b9350611bb383611b05565b8060005b83811015611be4578151611bcb8882611b6e565b9750611bd683611b86565b925050600181019050611bb7565b5085935050505092915050565b60006020820190508181036000830152611c0b8184611b93565b905092915050565b600081519050919050565b600082825260208201905092915050565b6000819050602082019050919050565b600082825260208201905092915050565b6000611c5b826117a1565b611c658185611c3f565b9350611c758185602086016117bd565b611c7e816115a6565b840191505092915050565b6000611c958383611c50565b905092915050565b6000602082019050919050565b6000611cb582611c13565b611cbf8185611c1e565b935083602082028501611cd185611c2f565b8060005b85811015611d0d5784840389528151611cee8582611c89565b9450611cf983611c9d565b925060208a01995050600181019050611cd5565b50829750879550505050505092915050565b60006020820190508181036000830152611d398184611caa565b905092915050565b7f4e487b7100000000000000000000000000000000000000000000000000000000600052602260045260246000fd5b60006002820490506001821680611d8857607f821691505b60208210811415611d9c57611d9b611d41565b5b50919050565b7f4e487b7100000000000000000000000000000000000000000000000000000000600052603260045260246000fd5b7f4e487b7100000000000000000000000000000000000000000000000000000000600052601160045260246000fd5b6000611e0b8261173e565b91507fffffffffffffffffffffffffffffffffffffffffffffffffffffffffffffffff821415611e3e57611e3d611dd1565b5b600182019050919050565b7f596f7520646f6e27742068617665206163636573730000000000000000000000600082015250565b6000611e7f6015836117ac565b9150611e8a82611e49565b602082019050919050565b60006020820190508181036000830152611eae81611e72565b905091905056fea2646970667358221220b95be938cc6568e2801b2c2ade2595905e346a5251dad51c5f623a9311e9872c64736f6c63430008090033",
  "linkReferences": {},
  "deployedLinkReferences": {}
}